{
  "contractName": "EthereumDNS",
  "abi": [
    {
      "constant": false,
      "inputs": [
        {
          "name": "domain",
          "type": "string"
        }
      ],
      "name": "deleteDomain",
      "outputs": [],
      "payable": false,
      "stateMutability": "nonpayable",
      "type": "function"
    },
    {
      "constant": true,
      "inputs": [
        {
          "name": "domain",
          "type": "string"
        }
      ],
      "name": "resolveDomain",
      "outputs": [
        {
          "name": "",
          "type": "string"
        }
      ],
      "payable": false,
      "stateMutability": "view",
      "type": "function"
    },
    {
      "constant": false,
      "inputs": [
        {
          "name": "domain",
          "type": "string"
        },
        {
          "name": "ip_addr",
          "type": "string"
        }
      ],
      "name": "buyDomain",
      "outputs": [],
      "payable": true,
      "stateMutability": "payable",
      "type": "function"
    },
    {
      "constant": false,
      "inputs": [
        {
          "name": "newPrice",
          "type": "uint256"
        }
      ],
      "name": "updateCurrentPrice",
      "outputs": [],
      "payable": false,
      "stateMutability": "nonpayable",
      "type": "function"
    },
    {
      "constant": true,
      "inputs": [],
      "name": "getCurrentPrice",
      "outputs": [
        {
          "name": "",
          "type": "uint256"
        }
      ],
      "payable": false,
      "stateMutability": "view",
      "type": "function"
    },
    {
      "inputs": [],
      "payable": false,
      "stateMutability": "nonpayable",
      "type": "constructor"
    }
  ],
  "bytecode": "0x606060405260018055341561001357600080fd5b336000806101000a81548173ffffffffffffffffffffffffffffffffffffffff021916908373ffffffffffffffffffffffffffffffffffffffff1602179055506108eb806100626000396000f30060606040526004361061006d576000357c0100000000000000000000000000000000000000000000000000000000900463ffffffff1680630eaf975214610072578063364460f3146100cf57806365064370146101a55780637fc6686e1461023a578063eb91d37e1461025d575b600080fd5b341561007d57600080fd5b6100cd600480803590602001908201803590602001908080601f01602080910402602001604051908101604052809392919081815260200183838082843782019150505050505091905050610286565b005b34156100da57600080fd5b61012a600480803590602001908201803590602001908080601f016020809104026020016040519081016040528093929190818152602001838380828437820191505050505050919050506103dc565b6040518080602001828103825283818151815260200191508051906020019080838360005b8381101561016a57808201518184015260208101905061014f565b50505050905090810190601f1680156101975780820380516001836020036101000a031916815260200191505b509250505060405180910390f35b610238600480803590602001908201803590602001908080601f0160208091040260200160405190810160405280939291908181526020018383808284378201915050505050509190803590602001908201803590602001908080601f01602080910402602001604051908101604052809392919081815260200183838082843782019150505050505091905050610528565b005b341561024557600080fd5b61025b6004808035906020019091905050610772565b005b341561026857600080fd5b6102706107db565b6040518082815260200191505060405180910390f35b3373ffffffffffffffffffffffffffffffffffffffff166002826040518082805190602001908083835b6020831015156102d557805182526020820191506020810190506020830392506102b0565b6001836020036101000a038019825116818451168082178552505050505050905001915050908152602001604051809103902060000160009054906101000a900473ffffffffffffffffffffffffffffffffffffffff1673ffffffffffffffffffffffffffffffffffffffff1614156103d45760006002826040518082805190602001908083835b602083101515610382578051825260208201915060208101905060208303925061035d565b6001836020036101000a038019825116818451168082178552505050505050905001915050908152602001604051809103902060030160006101000a81548160ff0219169083151502179055506103d9565b600080fd5b50565b6103e4610806565b60006002836040518082805190602001908083835b60208310151561041e57805182526020820191506020810190506020830392506103f9565b6001836020036101000a038019825116818451168082178552505050505050905001915050908152602001604051809103902090508060030160009054906101000a900460ff1680156104745750428160020154115b1561051d57806001018054600181600116156101000203166002900480601f0160208091040260200160405190810160405280929190818152602001828054600181600116156101000203166002900480156105115780601f106104e657610100808354040283529160200191610511565b820191906000526020600020905b8154815290600101906020018083116104f457829003601f168201915b50505050509150610522565b600080fd5b50919050565b60006002836040518082805190602001908083835b602083101515610562578051825260208201915060208101905060208303925061053d565b6001836020036101000a038019825116818451168082178552505050505050905001915050908152602001604051809103902060030160009054906101000a900460ff16801561061f5750426002846040518082805190602001908083835b6020831015156105e657805182526020820191506020810190506020830392506105c1565b6001836020036101000a038019825116818451168082178552505050505050905001915050908152602001604051809103902060020154115b1561062957600080fd5b42610633346107e5565b0190506080604051908101604052803373ffffffffffffffffffffffffffffffffffffffff168152602001838152602001828152602001600115158152506002846040518082805190602001908083835b6020831015156106a95780518252602082019150602081019050602083039250610684565b6001836020036101000a038019825116818451168082178552505050505050905001915050908152602001604051809103902060008201518160000160006101000a81548173ffffffffffffffffffffffffffffffffffffffff021916908373ffffffffffffffffffffffffffffffffffffffff160217905550602082015181600101908051906020019061073f92919061081a565b506040820151816002015560608201518160030160006101000a81548160ff021916908315150217905550905050505050565b6000809054906101000a900473ffffffffffffffffffffffffffffffffffffffff1673ffffffffffffffffffffffffffffffffffffffff163373ffffffffffffffffffffffffffffffffffffffff1614156107d357806001819055506107d8565b600080fd5b50565b6000600154905090565b600080600154838115156107f557fe5b049050620151808102915050919050565b602060405190810160405280600081525090565b828054600181600116156101000203166002900490600052602060002090601f016020900481019282601f1061085b57805160ff1916838001178555610889565b82800160010185558215610889579182015b8281111561088857825182559160200191906001019061086d565b5b509050610896919061089a565b5090565b6108bc91905b808211156108b85760008160009055506001016108a0565b5090565b905600a165627a7a723058201ee1b264350331f5d5a103522dcba1c028123f417475da649569cb68f3d158120029",
  "source": "pragma solidity ^0.4.0;\n\ncontract EthereumDNS{\n    // Contract owner address\n    address contract_owner;\n    \n    // Constructor for storing contract owner address\n    function EthereumDNS() public {\n        contract_owner = msg.sender;\n    }\n    \n    // Define struct for reserving domain\n    struct DNSRecord {\n        // Ethereum address for owner of the domain\n        address owner_addr;\n        // IP address attached to domain\n        string ip_addr;\n        // Time remaining before record is not valid\n        uint256 end_timestamp;\n        // true when DNSRecord exists\n        bool isDefined;\n    }\n    \n    // Define current price for a day in wei\n    uint private CurrentPrice = 1;\n    \n    // List containing domains (string) and their owners\n    mapping (string => DNSRecord) dns_records;\n    \n    // Resolves IP address based on domain name\n    function resolveDomain(string domain) public constant returns(string) {\n        var dnsRecord = dns_records[domain];\n        if(dnsRecord.isDefined && dnsRecord.end_timestamp > now){\n            return dnsRecord.ip_addr;\n        }else{\n            // address does not exists or registration time was expired\n            throw;\n        }\n    }\n    \n    // Buy domain if domain name is not used\n    function buyDomain(string domain, string ip_addr) public payable {\n        if(dns_records[domain].isDefined && dns_records[domain].end_timestamp > now){\n            // address exists and registration time was nor expired\n            throw;\n        }\n        else{\n            var end_timestamp = calculateTimeForAmount(msg.value) + now;\n            dns_records[domain] = DNSRecord(msg.sender,ip_addr,end_timestamp,true);\n        }\n    }\n    \n    // Delete domain if you are an owner of the domain\n    function deleteDomain(string domain) public {\n        if(dns_records[domain].owner_addr == msg.sender){\n            dns_records[domain].isDefined = false;\n        }\n        else{\n            throw;\n        }\n    }\n    \n    // Update current price if you are an owner of the contract\n    function updateCurrentPrice(uint newPrice) public ifOwner{\n        CurrentPrice = newPrice;\n    }\n    \n    // Get current price for a day\n     function getCurrentPrice() public constant returns(uint){\n        return CurrentPrice;\n    }\n\n    // Fail safe for hackers - check amount against our current price\n    function calculateTimeForAmount(uint amount) private returns (uint256){\n        // Calculate number of days (no decimals)\n        var numberOfDays = amount / CurrentPrice;\n        // Return number of seconds \n        return numberOfDays * 86400;\n  }\n  \n  // Modifier for determening wether function caller is contract owner\n   modifier ifOwner(){\n        if(msg.sender == contract_owner){\n            _;\n        }else{\n            throw;\n        }\n    }\n}\n    ",
  "sourcePath": "/Users/superpopcorn/Desktop/Toma/FAKS/7.SEM/RASUS/EthereumDNS/Truffle/contracts/EthereumDNS.sol",
  "compiler": {
    "name": "solc",
    "version": "0.4.18+commit.9cf6e910.Emscripten.clang"
  },
  "schemaVersion": "1.0.1",
  "updatedAt": "2018-01-17T15:03:13.567Z"
}