{
  "contractName": "Test",
  "abi": [
    {
      "constant": false,
      "inputs": [],
      "name": "getNum",
      "outputs": [
        {
          "name": "",
          "type": "uint256"
        }
      ],
      "payable": false,
      "stateMutability": "nonpayable",
      "type": "function"
    },
    {
      "inputs": [
        {
          "name": "initial",
          "type": "uint256"
        }
      ],
      "payable": false,
      "stateMutability": "nonpayable",
      "type": "constructor"
    }
  ],
  "bytecode": "0x6060604052341561000f57600080fd5b6040516020806100e0833981016040528080519060200190919050508060008190555050609f806100416000396000f300606060405260043610603f576000357c0100000000000000000000000000000000000000000000000000000000900463ffffffff16806367e0badb146044575b600080fd5b3415604e57600080fd5b6054606a565b6040518082815260200191505060405180910390f35b600080549050905600a165627a7a72305820701bd22e10755b86ece28c9755c1168c402033292f6d3a4627b913697f1719780029",
  "source": "pragma solidity ^0.4.4;\n\ncontract Test {\n\tuint num;\n\n\tfunction Test(uint initial) {\n\t\tnum = initial;\n\t}\n\n\tfunction getNum() returns (uint) {\n\t\treturn num;\n\t}\n}\n",
  "sourcePath": "/Users/superpopcorn/Desktop/Toma/FAKS/7.SEM/RASUS/EthereumDNS/Truffle/contracts/Test.sol",
  "compiler": {
    "name": "solc",
    "version": "0.4.18+commit.9cf6e910.Emscripten.clang"
  },
  "schemaVersion": "1.0.1",
  "updatedAt": "2018-01-17T14:55:42.138Z"
}